:020000040800F2
:10000000D833002071020008391F00082D120008A3
:10001000C51E0008970A0008E32D00080000000034
:10002000000000000000000000000000D9010008EE
:100030009B0A0008000000001D02000801240008BF
:100040008B0200088B0200088B0200088B0200085C
:100050008B0200088B0200088B0200085D0B000871
:100060008B0200088B0200088B0200088B0200083C
:100070008B0200088B0200088B0200088B0200082C
:100080008B0200088B0200088B0200088B0200081C
:100090008B0200088B0200088B0200088B0200080C
:1000A0008B0200088B0200088B020008B1260008B2
:1000B000092800088B0200088B0200088B02000848
:1000C0008B0200088B0200088B0200088B020008DC
:1000D0008B020008F92B00088B0200088B02000835
:1000E0009D0A00088B0200088B02000800F002F84D
:1000F00000F062F80AA090E8000C82448344AAF160
:100100000107DA4501D100F057F8AFF2090EBAE85D
:100110000F0013F0010F18BFFB1A43F0010318473B
:10012000B8BC0000D8BC00000A444FF0000C10F826
:10013000013B13F0070408BF10F8014B1D1108BF65
:1001400010F8015B641E05D010F8016B641E01F805
:10015000016BF9D113F0080F1EBF10F8014BAD1C55
:100160000C1B09D16D1E58BF01F801CBFAD505E073
:1001700014F8016B01F8016B6D1EF9D59142D6D3CD
:10018000704700000023002400250026103A28BFF5
:1001900078C1FBD8520728BF30C148BF0B607047F9
:1001A000642900F0E180732900F038830020704753
:1001B0001FB51FBD10B510BD00F0CEFB1146FFF7F7
:1001C000F7FF04F00DFC00F0ECFB03B4FFF7F2FFC7
:1001D00003BC02F08CFE0000224B19680868B0E8EE
:1001E000F00F80F30988BFF36F8F4FF0000080F3AA
:1001F00011884EF00D0E70470000000006480068A0
:10020000006880F3088862B661B6BFF34F8FBFF312
:100210006F8F00DF00BF00BF08ED00E0EFF3098043
:10022000BFF36F8F0F4B1A6820E9F00F106008B50D
:100230004FF0300080F31188BFF34F8FBFF36F8F03
:1002400007F0AEFA4FF0000080F31188BDE80840D7
:1002500019680868B0E8F00F80F30988BFF36F8F62
:10026000704700BFC8000020EFF305807047000012
:100270000948804709480047FEE7FEE7FEE7FEE73A
:10028000FEE7FEE7FEE7FEE7FEE7FEE70448054976
:10029000054A064B7047000011240008ED000008D5
:1002A000D82D0020D8330020D82F0020D82F0020B0
:1002B000704710B54C1084EA530404D54042C1F194
:1002C000000138BF491E1B4204D55242C3F100034E
:1002D00038BF5B1E00F09DF914F0804F04D04042FF
:1002E000C1F1000138BF491E14F0004F04D0524242
:1002F000C3F1000338BF5B1E10BD00000FB40449FA
:1003000010B503AA029800F08DFA10BC5DF814FB3A
:10031000A800002070B50C460546012A05D02878B3
:10032000800600D5EA69002302E0012305E05B1C9A
:10033000934202D2E05C0028F9D1A869E618C01AFD
:10034000A861286A184428622846AFF3008004E0B8
:10035000D5E9012114F8010B9047B442F8D328469F
:10036000AFF3008070BD00002DE9F0410646002487
:1003700010687529314616A510D0AFF3008000280B
:1003800002DA404213A507E031688A0701D512A5B9
:1003900002E0490704D511A5012401E0AFF3008074
:1003A00000210A2206F1240709E0B0FBF2FCB0FBB1
:1003B000F2F302FB1C00303078541846491C002828
:1003C000F3D123462A463046BDE8F04100F0A3B9F8
:1003D000000000002D0000002B00000020000000A5
:1003E0002DE9F05F894604464FF0000ADFF824B19A
:1003F000FB44C0F820A02046E168884700287DD053
:10040000252806D0D4E901219047206A401C2062AB
:10041000F1E700255F462046E16888472028064628
:1004200007DB312E05D2B81910F8200C08B10543AE
:10043000F1E7A80701D525F00405C4F81CA00027A2
:10044000C4F818A02A2E09D0304602F049FD38B36E
:1004500004EB8708303EC8F8186019E059F8041B0F
:10046000204604EB87029161E1688847012F064628
:1004700018D1E069002820DA25F020051DE0D8F821
:10048000180000EB800006EB40003038C8F8180078
:100490002046E1688847064602F022FD0028EED19A
:1004A000012F0AD02E2E08D12046E16888477F1CF4
:1004B0000646022F45F02005C4DBA069002803DAB8
:1004C000404245F00105A061E80701D025F0100584
:1004D000A6B1A6F14100192802D8203645F40065DE
:1004E0004A463146204625604D46FFF759FE60B129
:1004F000012807D0ED1D25F0070000E007E000F11E
:10050000080978E705F1040975E730467AE7206ABB
:10051000BDE8F09F8EB8000040EA010310B59B07CC
:100520000FD1042A0DD310C808C9121F9C42F8D05D
:1005300020BA19BA884201D9012010BD4FF0FF300E
:1005400010BD1AB1D30703D0521C07E0002010BD24
:1005500010F8013B11F8014B1B1B07D110F8013BB0
:1005600011F8014B1B1B01D1921EF1D1184610BD91
:10057000032A40F2308010F0030C00F0158011F8CF
:10058000013BBCF1020F624498BF11F801CB00F8A7
:10059000013B38BF11F8013BA2F1040298BF00F8FB
:1005A00001CB38BF00F8013B11F0030300F04C8190
:1005B000083AC0F0088051F8043B083A51F804CBDF
:1005C000A0E80810F5E7121D5CBF51F8043B40F8A5
:1005D000043BAFF30080D20724BF11F8013B11F8B0
:1005E00001CB48BF11F8012B24BF00F8013B00F8F4
:1005F00001CB48BF00F8012B704702F0FF0343EA2C
:10060000032242EA024200F053B970477047704734
:10061000704753EA020C00F069802DE9F04B4FF06F
:100620000006002B1FBFB3FA83F503FA05F424FA82
:1006300005F65E4012BF1643B2FA82F502FA05F4DF
:10064000C5F120051EBF22FA05FC44EA0C04203542
:1006500056EA044C4FEA144418BF641C4FF00008DB
:100660004FF00009904271EB030C39D3002919BFF8
:10067000B1FA81F701FA07F6B0FA80F700FA07F647
:10068000C7F120071EBF20FA07FC46EA0C062037F8
:10069000B6FBF4FCA7EB0507103F07F01F0BCBF1EF
:1006A00020060CFA0BFB2CFA06F644BFB3460026D4
:1006B000202FA4BF5E464FF0000B5BEA060C08BF7C
:1006C0004FF0010B19EB0B09ABFB027C48EB060862
:1006D000C01B06FB02CC0BFB03CC71EB0C01C1E78A
:1006E0000B46024641464846BDE8F08B13B54FF035
:1006F00000004FF00001AFF30080BDE81C407047E0
:1007000010B500F0F5F8006810BD10B5044600F013
:10071000EFF8046010BD2DE9F0470D46994692466A
:10072000044600F124080168880604D5E06921F038
:100730001001216000E00120A84201DD471B00E01C
:100740000027A1697A1902EB0900081AA061207834
:10075000C00602D42046AFF30080002608E0D4E9AA
:1007600001211AF806009047206A401C761C20627E
:100770004E45F4DB2078C0060AD52046AFF3008052
:1007800006E0D4E9012130209047206A401C206215
:10079000381EA7F10107F4DC07E0D4E9012118F8BD
:1007A00005009047206A401C2062281EA5F1010523
:1007B000F3DC2046AFF300802078000602D502204B
:1007C000BDE8F0870120FBE701694A1C0261087857
:1007D000704700B58FB0CDE9013100210591054981
:1007E0007944CDE9031011466846FFF7F9FD0FB0D3
:1007F00000BD0000E5FFFFFF10B5436913B1AFF383
:10080000008001E0FFF786FD012010BD127800F1A5
:1008100024010A7000224A700122EDE711684FF0AE
:10082000FF32E9E7074B70B50D467B44FFF7D1FF78
:100830000446284600F060F810B14FF0FF3070BD5C
:10084000204670BDAF3A000010B5203AC0F00B80D2
:10085000B1E81850203AA0E81850B1E81850A0E8C4
:100860001850BFF4F5AF5FEA027C24BFB1E818501E
:10087000A0E8185044BF18C918C0BDE810405FEA8E
:10088000827C24BF51F8043B40F8043B08BF70470A
:10089000D20728BF31F8023B48BF11F8012B28BF0F
:1008A00020F8023B48BF00F8012B70474FF00002D0
:1008B0000429C0F0128010F0030C00F02380CCF16A
:1008C000040CBCF1020F18BF00F8012BA8BF20F8E0
:1008D000022BA1EB0C0100F015B85FEAC17C24BF2C
:1008E00000F8012B00F8012B48BF00F8012B7047DE
:1008F00000487047782D0020007B00F08000704792
:100900004FF0000200B5134694469646203922BFA8
:10091000A0E80C50A0E80C50B1F12001BFF4F7AFF3
:10092000090728BFA0E80C5048BF0CC05DF804EBD5
:10093000890028BF40F8042B08BF704748BF20F843
:10094000022B11F0804F18BF00F8012B70470000F8
:1009500000487047782D00207546FFF7F9FFAE4636
:1009600005006946534620F00700854618B020B5BB
:10097000FFF78CFCBDE820404FF000064FF0000769
:100980004FF000084FF0000B21F00701AC46ACE837
:10099000C009ACE8C009ACE8C009ACE8C0098D46A4
:1009A000704710B50446AFF300802046BDE8104004
:1009B000FFF70BBC70B505460C4616461E48844230
:1009C00004D10121042001F00BFB2EE01B488442DE
:1009D00004D10121082001F003FB26E018488442DD
:1009E00004D10121102001F0FBFA1EE015488442D9
:1009F00004D10121202001F0F3FA16E012488442CC
:100A000004D10121402001F0EBFA0EE00F488442AE
:100A100004D10121802001F0E3FA06E00C48844271
:100A200003D10121801501F0DBFA2C60AE8028464D
:100A300000F010F870BD000000080140000C0140FB
:100A4000001001400014014000180140001C01404A
:100A50000020014038B50446A088ADF80000102001
:100A60008DF8030003208DF802006946206800F02D
:100A7000B1F9204600F001F838BD10B50446A18850
:100A8000206800F03BFA10BD10B50446A18820682C
:100A900000F036FA10BD00BFFEE770471FB500201A
:100AA00003900A2002F034FE4FF4805000F014F955
:100AB00070B34FF48051224800F017FA20BB214850
:100AC0000078401C1F490870084600780D2801DD99
:100AD00008200870002010211BA24FF6FF73CDE9FB
:100AE000002102901F22782101F0F0FB1020022348
:100AF0000090144802787821282000F023FE03A9F2
:100B00001348006807F0EAF94FF4805000F0DEF86F
:100B10004FF4804000F0E0F830B10E4803F059FF88
:100B20004FF4804000F0D2F8039838B14FF0805075
:100B300009490860BFF34F8FBFF36F8F1FBD0000DF
:100B4000000C014045000020476561723A0000003A
:100B5000200000202C00002004ED00E01FB5002044
:100B600003900A2002F0D4FD02211B4800F0BDF9D9
:100B700020BB1A480078401E1849087008460078C3
:100B8000032801DA082008700020102114A24FF673
:100B9000FF73CDE9002102901F22642101F096FB32
:100BA0001020022300900D4802786421282000F0D4
:100BB000C9FD03A90C48006807F090F9022000F075
:100BC00085F8039838B14FF0805008490860BFF3AA
:100BD0004F8FBFF36F8F1FBD000C014044000020FA
:100BE000476561723A0000001C00002004ED00E03F
:100BF0001FB50121084601F0F3F90121102001F091
:100C0000EFF94FF48040ADF80C0048208DF80F004C
:100C100003A92D4800F0DEF80121084600F0BAF8DB
:100C20000220019000208DF808000C208DF80900AA
:100C300001208DF80A0001A800F062F80C210120C3
:100C400000F0A8F84FF48050019000208DF80800C3
:100C50000C208DF8090001208DF80A0001A800F091
:100C60004FF80E21022000F095F84FF480400190DB
:100C700000208DF808000C208DF8090001208DF867
:100C80000A0001A800F03CF828208DF80000072099
:100C90008DF8010000208DF8020001208DF803007E
:100CA000684601F04BF907208DF8000008208DF808
:100CB000010000208DF8020001208DF80300684635
:100CC00001F03CF91FBD000000100140014908601F
:100CD0007047000014040140014600200022074B29
:100CE0001B6803EA0102054B14331B680B4013B168
:100CF0000AB1012000E0002070470000000401401C
:100D0000002123498279002A3AD00A4612680368F2
:100D10009A430B461A600A1D126803689A430B1D1A
:100D20001A60027911440A6803681A430A60184A73
:100D30000832126803689A43154B08331A601A1D6B
:100D4000126803689A43124B0C331A604279102AD6
:100D50000ED11A1F126803681A430D4B08331A602C
:100D60001A1D126803681A43094B0C331A600DE010
:100D70000749427911440A6803681A430A6005E08A
:100D8000027911440A6803689A430A6070470000B8
:100D90000004014030B500228B071C0F0F2303FA1B
:100DA00004F20B4B8C1053F824309343084C8D10F5
:100DB00044F8253023468C1053F824308C07240F38
:100DC00000FA04F42343024C8D1044F8253030BD62
:100DD000080001402DE9F0410246002500260020D0
:100DE00000230024002791F803C00CF00F0591F8B0
:100DF00003C00CF0100CBCF1000F03D091F802C03E
:100E00004CEA050591F800C0BCF1000F31D0146820
:100E100000202BE04FF0010C0CFA00F3B1F800C0F9
:100E20000CEA03069E4220D183004FF00F0C0CFA0F
:100E300003F7BC4305FA03FC4CEA040491F803C031
:100E4000BCF1280F06D14FF0010C0CFA00FCC2F8DF
:100E500014C00AE091F803C0BCF1480F05D14FF06F
:100E6000010C0CFA00FCC2F810C0401C0828D1D3B9
:100E70001460B1F800C0BCF1FF0F34DD54680020ED
:100E80002EE000F1080C4FF0010808FA0CF3B1F85D
:100E900000C00CEA03069E4221D183004FF00F0CE4
:100EA0000CFA03F7BC4305FA03FC4CEA040491F87E
:100EB00003C0BCF1280F05D100F1080C08FA0CF8AA
:100EC000C2F8148091F803C0BCF1480F07D100F1BB
:100ED000080C4FF0010808FA0CF8C2F81080401C0A
:100EE0000828CED35460BDE8F08102460020936804
:100EF0000B400BB1012000E00020704741617047BA
:100F0000016170472DE9FC5F0546884691469A4687
:100F1000DDF830B000953E20019000245FE004EB46
:100F20000410374911F810009BF80010884253D183
:100F300004EB0410324901EB400040789BF80110AB
:100F4000884249D108F10F0083B205F10F0082B247
:100F50004146284600F038FB00263BE0002734E0FD
:100F60000D9890B904EB0410254901EB4000801C5A
:100F7000805D80213941084018B1484600F008FDE5
:100F800021E0504600F004FD1DE01E48A0F800904E
:100F900004EB04101A4901EB4000801C805D8021A5
:100FA0003941084018B14146284600F071F9681CE3
:100FB00085B20098281A102805D1009D08F101007B
:100FC0001FFA80F803E0781CC7B2082FC8DB00BF07
:100FD000701CC6B2202EC1DB00BF601C84B2019819
:100FE00084429CDB08484088401E83B20648008843
:100FF000401E82B20021084600F0E6FABDE8FC9FE0
:10100000F2A3000868000020460100202DE9FC5FE3
:101010000546884691469A46DDF830B0009507208F
:101020000190002467E004EB840000EB44103A498F
:1010300011F810009BF80010884259D104EB84008D
:1010400000EB4410344901EB400040789BF801105C
:1010500088424DD108F1170083B205F1170082B222
:101060004146284600F0B0FA00263FE0002738E06D
:101070000D98A0B904EB840000EB4410264901EB65
:101080004000801C805D80213941084018B14846ED
:1010900000F07EFC23E0504600F07AFC1FE01F4881
:1010A000A0F8009004EB840000EB44101A4901EB17
:1010B0004000801C805D80213941084018B14146C4
:1010C000284600F0E5F8681C85B20098281A182810
:1010D00005D1009D08F101001FFA80F803E0781C9B
:1010E000C7B2082FC4DB00BF701CC6B2482EBDDBE0
:1010F00000BF601C84B20198844294DB0848408899
:10110000401E83B206480088401E82B20021084675
:1011100000F05AFABDE8FC9F2EAC000868000020E1
:10112000460100202DE9FC5F0546884691469A4617
:10113000DDF830B000950420019000245FE004EB5E
:101140008410374911F810009BF80010884253D1E1
:1011500004EB8410324901EB400040789BF8011009
:10116000884249D108F11F0083B205F11F0082B205
:101170004146284600F028FA00263BE0002734E0EC
:101180000D9890B904EB8410254901EB4000801CB8
:10119000805D80213941084018B1484600F0F8FBD5
:1011A00021E0504600F0F4FB1DE01E48A0F800903E
:1011B00004EB84101A4901EB4000801C805D802103
:1011C0003941084018B14146284600F061F8681CD2
:1011D00085B20098281A202805D1009D08F1010049
:1011E0001FFA80F803E0781CC7B2082FC8DB00BFE5
:1011F000701CC6B2802EC1DB00BF601C84B2019897
:1012000084429CDB08484088401E83B20648008820
:10121000401E82B20021084600F0D6F9BDE8FC9FCE
:1012200034AE0008680000204601002000BFFEE741
:1012300070B5064614484088401E83B212480088A4
:10124000401E82B20021084600F0BEF94FF4007043
:101250000E4908608020091F086000240AE000256C
:1012600003E0304600F094FB6D1C07480088A8425C
:10127000F7D8641C04484088A042F0D84FF40070AE
:101280000249091F086070BD46010020140C01408E
:1012900070B504460D462946204600F08BF90248F9
:1012A000008800F075FB70BD680000202DE9F05F3C
:1012B00004460D4616461F46301B401C1FFA80FA96
:1012C000781B401C1FFA80FB3B46324629462046CD
:1012D00000F07AF94FF000080FE04FF0000906E047
:1012E0000A9800F055FB09F101001FFA80F9D14579
:1012F000F6DB08F101001FFA80F8D845EDDB07485E
:101300004088401E83B205480088401E82B20021FA
:10131000084600F059F9BDE8F09F000046010020A2
:1013200008B50121082000F05BFE4FF47070ADF8A5
:10133000000003208DF8020010208DF8030069469C
:101340000148FFF747FD08BD000C014010B500F053
:10135000C1FEFFF7E5FF00F019F9112000F062FA75
:10136000782002F091F9B12000F05CFA012000F041
:1013700041FA2C2000F03EFA2D2000F03BFAB2207A
:1013800000F050FA012000F035FA2C2000F032FA7B
:101390002D2000F02FFAB32000F044FA012000F0D5
:1013A00029FA2C2000F026FA2D2000F023FA012043
:1013B00000F020FA2C2000F01DFA2D2000F01AFA7F
:1013C000B42000F02FFA072000F014FAC02000F03B
:1013D00029FAA22000F00EFA022000F00BFA842075
:1013E00000F008FAC12000F01DFAC52000F002FA52
:1013F000C22000F017FA0A2000F0FCF9002000F0EB
:10140000F9F9C32000F00EFA8A2000F0F3F92A203F
:1014100000F0F0F9C42000F005FA8A2000F0EAF9A3
:10142000EE2000F0E7F9C52000F0FCF90E2000F0F6
:10143000E1F9362000F0F6F9C02000F0DBF9E020F9
:1014400000F0F0F90F2000F0D5F91A2000F0D2F9E1
:101450000F2000F0CFF9182000F0CCF92F2000F079
:10146000C9F9282000F0C6F9202000F0C3F9222095
:1014700000F0C0F91F2000F0BDF91B2000F0BAF900
:10148000232000F0B7F9372000F0B4F9002000F075
:10149000B1F9072000F0AEF9022000F0ABF91020FE
:1014A00000F0A8F9E12000F0BDF90F2000F0A2F94A
:1014B0001B2000F09FF90F2000F09CF9172000F08E
:1014C00099F9332000F096F92C2000F093F92920A7
:1014D00000F090F92E2000F08DF9302000F08AF90C
:1014E000302000F087F9392000F084F93F2000F027
:1014F00081F9002000F07EF9072000F07BF903203D
:1015000000F078F9102000F075F92A2000F08AF92F
:10151000002000F06FF9002000F06CF9002000F0CE
:1015200069F97F2000F066F92B2000F07BF900209C
:1015300000F060F9002000F05DF9002000F05AF999
:101540009F2000F057F9F02000F06CF9012000F026
:1015500051F9F62000F066F9002000F04BF93A202E
:1015600000F060F9052000F045F9292000F05AF953
:10157000002000F07FF90120034908604FF6FF705A
:10158000FFF756FE10BD00009881214210B54FF4C0
:10159000807007490860642002F076F84FF480708C
:1015A0000349091F0860322002F06EF810BD0000E8
:1015B000140C014070B504460D462B4622462946C0
:1015C000204600F001F870BD2DE9F04104460D46BB
:1015D00016461F461149887A00F024F9002000F0D1
:1015E00009F9E0B200F006F9002000F003F9F0B2CA
:1015F00000F000F90949087B00F014F9002000F020
:10160000F9F8E8B200F0F6F8002000F0F3F8F8B2CC
:1016100000F0F0F800F01CF9BDE8F0814601002070
:101620002DE9FF4F83B081468A469346DDE9106479
:10163000404800880290A6F12000C6B204EBD470A6
:1016400009EB6000401E82B20AEB0400401E83B228
:10165000514648460194FFF7B7FF129850BB00254A
:1016600025E00C2C07D106EB4600334901EB800046
:1016700010F8058004E0314800EB061010F80580F2
:1016800000270DE008F0010018B1584600F080F97D
:1016900002E0069800F07CF94FEA6808781CC7B2AF
:1016A00004EBD471B7EB610FECDB681CC5B2A5424B
:1016B000D7DB2DE0002529E00C2C07D106EB4600F6
:1016C0001D4901EB800010F8058004E01B4800EB89
:1016D000061010F80580002711E01648A0F800B0A9
:1016E00008F0010038B10AEB050291B209EB0702DC
:1016F00090B2FFF7CDFD4FEA6808781CC7B204EB43
:10170000D471B7EB610FE8DB681CC5B2A542D3DB2F
:101710000849029808800A484088401E83B2084859
:101720000088401E82B200210846FFF74DFF07B037
:10173000BDE8F08F680000208E990008029E000826
:10174000460100202DE9FF4F83B0074691461E4613
:10175000109C4FF0000A002543E0701B401EC1B2F0
:101760000A2004F053FBB9FBF0F00A21B0FBF1F2C0
:1017700001FB1208BAF1000F1BD1701EA84218DD40
:10178000B8F1000F13D100202021A346CDE90014A9
:10179000029004EBDB71491001FB057188B213491B
:1017A0000B8813490A880499FFF73AFF17E04FF0B6
:1017B000010A002108F13000C0B2A346CDE9014181
:1017C000009004EBDB71491001FB057188B20749F9
:1017D0000B8807490A880499FFF722FF00BF681C9D
:1017E000C5B2B542B9DB07B0BDE8F08F6A00002092
:1017F0006800002010B504464FF4007007490860E7
:101800008020091F08602146054800F0D9FC4FF4EC
:1018100000700249091F086010BD0000140C01404F
:101820000030014010B504464FF4007006490860CE
:10183000802008602146054800F0C2FC4FF400708B
:101840000149091F086010BD140C0140003001401F
:1018500010B50249087AFFF7E5FF10BD46010020E8
:1018600070B505460C462846FFF7DCFFE0B2FFF7EF
:10187000C1FF70BD10B504462A201C4948812B20A9
:1018800088812C20088134B1012C0ED0022C16D076
:10189000032C28D11DE0802014490880A020488016
:1018A000C0213620FFF7DCFF1EE0A0200F49088092
:1018B00080204880A0213620FFF7D2FF14E080204E
:1018C0000A490880A020488000213620FFF7C8FF81
:1018D0000AE0A02005490880802048806021362049
:1018E000FFF7BEFF00E000BF00BF10BD46010020B3
:1018F00070B505460C4616461E48844204D10121A7
:10190000042000F06DFB2EE01B48844204D101212D
:10191000082000F065FB26E01848844204D101212C
:10192000102000F05DFB1EE01548844204D1012127
:10193000202000F055FB16E01248844204D101211A
:10194000402000F04DFB0EE00F48844204D10121FD
:10195000802000F045FB06E00C48844203D10121C1
:10196000801500F03DFB2C60AE80284603F017F890
:1019700070BD000000080140000C01400010014053
:101980000014014000180140001C014000200140EB
:1019900010B504464FF40070094908608020091F03
:1019A00008602112074800F00BFCE1B2054800F086
:1019B00007FC4FF400700249091F086010BD0000C9
:1019C000140C01400030014010B500200E490860A1
:1019D0000E48006820F470400C4908600846006812
:1019E00040F44050086000200949C1F8AC0100F003
:1019F00011F801200449086000F00CF800200449A7
:101A0000C1F8A80110BD0000A8812142040C0140CA
:101A10000080214210B5022001F056FE10BD0000EA
:101A200008B50121082000F0DBFA4FF44060ADF862
:101A3000000010208DF8030003208DF80200694695
:101A40000448FFF7C7F94FF440610248FFF758FA1E
:101A500008BD0000000C014010B500200E490860D0
:101A60000E48006820F470400C4908600846006881
:101A700040F44050086001200949C1F8AC01FFF76B
:101A8000C9FF012004490860FFF7C4FF0020044992
:101A9000C1F8A80110BD0000A8812142040C01403A
:101AA0000080214270B5054600241648006820F4E5
:101AB0007040144908600846006840F4004008601F
:101AC000002614E0002010490860FFF7A3FF012062
:101AD0000E49C1F8A8016006040E0B487C38006866
:101AE00008B1601CC4B2FFF795FF701CC6B2082E87
:101AF000E8DB15B9FFF7B0FF01E0FFF765FF20460F
:101B000070BD0000040C0140A881214200802142E8
:101B100070B504461248006820F47040104908600F
:101B20000846006840F44050086000200D490860F5
:101B3000002512E0E0090B49091D08606006040E4B
:101B400001200949C1F8A801FFF764FF00200549F9
:101B50000860FFF75FFF681CC5B2082DEADB70BDA7
:101B6000040C0140A88121420080214210B50F4899
:101B7000006820F470400D4908600846006840F491
:101B80004050086001200A4908600A49C1F8A801CC
:101B9000FFF740FF002006490860FFF73BFF0020E9
:101BA0000449C1F8A801FFF735FF10BD040C01403E
:101BB000AC8121420080214210B50E48006820F41B
:101BC00070400C4908600846006840F440500860C6
:101BD0000020094908600949C1F8AC01FFF71AFF64
:101BE0000120054908600549C1F8AC01FFF712FF63
:101BF00010BD0000040C0140A88121420080214258
:101C000010B500241448006820F4704012490860A0
:101C10000846006840F40040086001200F49086051
:101C2000FFF7F8FE01200E49C1F8A801FFF7F2FE08
:101C300007E0601CC4B2FA2C03DDFFF7BDFF0120F2
:101C400010BD0648803800680028F2D10349091FFA
:101C5000086000BFF4E70000040C0140AC812142A1
:101C60000080214210B5FFF7DBFE80216B2000F0E1
:101C7000D7F8642001F008FD00216B2000F0D0F8B7
:101C8000032000F08BF8002000F080F8322000F0F4
:101C9000AAF80021382000F0C3F800216A2000F0E3
:101CA000BFF80021232000F0BBF88021372000F08E
:101CB000B7F8752000F013F80446682C0BD1012109
:101CC0006B2000F0ADF800216C2000F0A9F8322064
:101CD00000F089F801E0012010BD0020FCE770B59C
:101CE0000446FFF743FFD020FFF712FFFFF788FFFE
:101CF0002046FFF70DFFFFF783FFFFF737FFD120E7
:101D0000FFF706FFFFF77CFF0020FFF7CBFE05463D
:101D1000FFF752FF284670BD2DE9F04106460F46F9
:101D200014461D46FFF722FF002141EA4601C8B2D2
:101D3000FFF7EEFEFFF764FF20B1FFF73DFF012044
:101D4000BDE8F0813846FFF7E3FEFFF759FFFFF7E4
:101D50000DFF012101EB4601C8B2FFF7D9FEFFF7E5
:101D60004FFF0DE0012C04D10020FFF79BFE2870EF
:101D700003E00120FFF796FE2870601EC4B26D1CC0
:101D8000002CEFD1FFF718FF0020D9E710B504466B
:101D9000E006010E1C2000F043F810BD10B504460B
:101DA000E006010E1B2000F03BF810BD70B50446A4
:101DB0000025BC2C01DB012510E0622C01DB022593
:101DC0000CE02A2C01DB032508E0142C01DB0425A0
:101DD00004E00A2C01DB052500E0062529461A202F
:101DE00000F01EF870BD70B50446B4F57A7F01DDD1
:101DF0004FF47A74042C00DA04244FF47A7090FBC8
:101E0000F4F0401EC5B22946192000F009F8054635
:101E1000264604EBD671C1F34F00FFF7C7FF70BD34
:101E200070B505460C46FFF7A1FED020FFF770FE07
:101E3000FFF7E6FE18B1FFF7BFFE012070BD284690
:101E4000FFF766FEFFF7DCFE2046FFF761FEFFF7B7
:101E5000D7FE18B1FFF7B0FE0120EFE7FFF7ACFEA9
:101E60000020EBE72DE9F04105460E46174698465F
:101E7000FFF77CFE002141EA4501C8B2FFF748FEAA
:101E8000FFF7BEFE20B1FFF797FE0120BDE8F0810D
:101E90003046FFF73DFEFFF7B3FE00240CE018F8D4
:101EA0000400FFF735FEFFF7ABFE18B1FFF784FE25
:101EB0000120EBE7601CC4B2BC42F0DBFFF77CFE04
:101EC0000020E3E700BFFEE70EB526E000235A1E20
:101ED00019461248006805F05BFD11480068114979
:101EE00008600020102110A24FF6FF73CDE90021F9
:101EF00002901F22502100F0E9F9102000900948BB
:101F00000068C0EB001080004208022350213020FE
:101F1000FFF718FC002002490860D7E724000020E2
:101F2000480000204C00002053706565643A303052
:101F3000722F6D696E0000007047000070B50021BF
:101F400000230F22C47804B3154C246804F4E06421
:101F5000C4F5E064210AC1F10403CA40447804FADC
:101F600003F184781440214309010E4C0678A155F1
:101F7000047804F01F050124AC4005786D11AD0014
:101F800005F1E025C5F8004109E0047804F01F05DB
:101F90000124AC40044D0678761145F8264070BD0A
:101FA0000CED00E000E400E080E100E002490143C4
:101FB000024A1160704700000000FA050CED00E0D5
:101FC00029B1064AD2690243044BDA6104E0034AAC
:101FD000D2698243014BDA61704700000010024071
:101FE00029B1064A92690243044B9A6104E0034A0C
:101FF00092698243014B9A617047000000100240D1
:1020000030B500210022002400232D4D6D6805F01D
:102010000C0121B1042905D0082923D105E0294D5F
:10202000056022E0274D05601FE0254D6D6805F431
:102030007012234D6D6805F48034022505EB924241
:102040001CB9214D554305600BE01D4D6D6805F42D
:1020500000351DB11C4D5543056002E0194D554337
:10206000056002E0174D056000BF00BF144D6D68AC
:1020700005F0F0010909154D6B5C0568DD40456010
:102080000F4D6D6805F4E061090A104D6B5C456801
:10209000DD4085600A4D6D6805F46051C90A0B4D3D
:1020A0006B5C4568DD40C560054D6D6805F44041D9
:1020B000890B074D6B5CC568B5FBF3F5056130BD59
:1020C0000010024000127A0000093D00B20000201A
:1020D000C200002000B587B001210520FFF780FF76
:1020E000A020ADF8040003208DF8060018208DF81C
:1020F000070001A91B48FEF76DFE4020ADF8040063
:1021000048208DF8070003208DF8060001A9154826
:10211000FEF760FE01210803FFF762FF0020ADF823
:1021200008004FF48270ADF80A000020ADF80C00F2
:10213000ADF80E00ADF810004FF40070ADF81200CD
:102140000020ADF81400ADF816000720ADF8180017
:1021500002A9054800F016F80121034800F006F82E
:1021600007B000BD000801400030014021B10288E5
:1021700042F04002028004E002884FF6BF731A402A
:102180000280704710B50022028802F441520B8889
:102190004C8823438C882343CC8823430C892343D6
:1021A0004C8923438C892343CC8923431A430280DF
:1021B000838B4FF2FF74234083830B8A038210BD0D
:1021C000024600BF108900F002000028FAD0918179
:1021D00000BF108900F001000028FAD09089C0B239
:1021E000704710B500F002F810BD00000CB50020DB
:1021F000019000903348006840F480303149086015
:1022000000BF3048006800F4003000900198401C86
:102210000190009818B90198B0F5A06FF1D1294844
:10222000006800F4003010B10120009001E00020AF
:1022300000900098012843D12348006840F0100026
:10224000214908600846006820F00300086008463D
:10225000006840F0020008601A4840681949486068
:102260000846406848600846406840F4806048601E
:102270000846406820F47C1048600846406840F4F6
:10228000E81048600846006840F08070086000BFB1
:102290000C48006800F000700028F9D00948406838
:1022A00020F00300074948600846406840F00200FB
:1022B000486000BF0348406800F00C000828F9D1CE
:1022C0000CBD000000100240002002402DE9FF4F2D
:1022D00083B0064688469146DDE91147109DB24617
:1022E0004FF0000B71E0BBF1000F40D104EBD47153
:1022F000384A1288A2EB6101B14204DB35494988B2
:10230000091B414502DA07B0BDE8F08F2878802824
:1023100002DD4FF0010B58E028780D2806D108EBBC
:1023200004001FFA80F856466D1C1EE0102C0DDDCF
:10233000102128788DE883004A4641463046069BA6
:10234000FFF76EF906F1080086B20EE028788DE8F6
:1023500091004A4641463046069BFFF761F9204608
:1023600004EBD07106EB61018EB26D1C2DE01948B3
:102370000088001BB04204DB16484088001B404523
:1023800000DAC0E74FF0000B202C08D1CDE9005750
:102390004A4641463046069BFEF7C4FE12E0182C22
:1023A00008D1CDE900574A4641463046069BFEF724
:1023B0002DFE07E0CDE900574A4641463046069BD0
:1023C000FEF7A0FDAD1C301986B2287800288AD10E
:1023D00000BF98E746010020042808D14FF0E02113
:1023E000096941F004014FF0E022116107E04FF06C
:1023F000E021096921F004014FF0E02211617047EA
:1024000010B505F069FE012801D005F06DFA10BD88
:1024100010B51348006840F00100114908600846F3
:102420004068104908400E494860084600680E4957
:1024300008400B4908600846006820F480200860C6
:102440000846406820F4FE0048604FF41F00886092
:10245000FFF7C7FE4FF000600449086010BD0000A0
:10246000001002400000FFF8FFFFF6FE08ED00E05C
:10247000F0B50C46154600220021068C4FF6FE777B
:102480003E400684028B018C4FF60C7632407E1C57
:1024900006EA03162E433243104EB0420ED0104EC1
:1024A000B0420BD0B0F1804F08D00E4EB04205D0F4
:1024B0000D4EB04202D00D4EB04206D14FF6FD7621
:1024C000314044F00106314305E04FF6F5763140E6
:1024D00044F00106314302830184F0BD002C014029
:1024E000003401400004004000080040000C00409F
:1024F000F0B50C461546002200210026078C4FF649
:10250000EF7C07EA0C070784028B018C4FF6FF77FC
:1025100007EA041640F6FF473A404FF6FF7707EA0E
:1025200003373A434FF6FF7707EA05273A43114F3F
:10253000B8420ED0104FB8420BD0B0F1804F08D047
:102540000E4FB84205D00E4FB84202D00D4FB842E0
:1025500006D14FF6DF77394046F01007394305E0E2
:102560004FF65F77394044F0100739430283018406
:10257000F0BD0000002C0140003401400004004088
:1025800000080040000C0040F0B50C461546002243
:1025900000210026078C4FF6FF6C07EA0C07078422
:1025A000828B018C4FF6FF7707EA04264FF60C77F3
:1025B0003A404FF6FF7707EA03172F433A43114F8C
:1025C000B8420ED0104FB8420BD0B0F1804F08D0B7
:1025D0000E4FB84205D00E4FB84202D00D4FB84250
:1025E00006D14FF6FF57394046F48077394305E06E
:1025F0004FF2FF57394044F4807739438283018496
:10260000F0BD0000002C01400034014000040040F7
:1026100000080040000C0040F0B50C4615460022B2
:1026200000210026078C4EF6FF7C07EA0C07078482
:10263000828B018C4FF6FF7707EA043640F6FF479E
:102640003A404FF6FF7707EA05273A434FF6FF7700
:1026500007EA03373A43114FB8420ED0104FB84241
:102660000BD0B0F1804F08D00E4FB84205D00E4FBE
:10267000B84202D00D4FB84206D14DF6FF7739402F
:1026800046F48057394305E047F6FF57394044F494
:102690008057394382830184F0BD0000002C014043
:1026A000003401400004004000080040000C0040DD
:1026B00008B5002000902448007800F0800060BB3E
:1026C0000221224800F042F938B31F48007800F098
:1026D000400078B11C48007840F080001A4908702A
:1026E0001A4800F030F91A4908800021174800F014
:1026F0009EF912E000201449087015490880002155
:10270000124800F0F8F91048007840F040000E49F7
:10271000087002210D4800F08AF902210B4800F0F0
:1027200003F900236A460A490A48006805F04EFB8F
:10273000009838B14FF0805007490860BFF34F8FC1
:10274000BFF36F8F08BD000050000020002C014037
:10275000520000202800002004ED00E030B585B0D4
:1027600005460C460121C802FFF73AFC012104206E
:10277000FFF736FC4FF48070ADF8100028208DF87C
:10278000130004A91D48FEF725FB4FF480711B4878
:10279000FEF7B4FBADF80850ADF804400020ADF8EA
:1027A0000A00ADF8060001A9154800F0D3F9002091
:1027B000144908804880012088800020C880088152
:1027C0000F4800F0D5F81B208DF8000005208DF88B
:1027D000010000208DF8020001208DF803006846FA
:1027E000FFF7ACFB01220221054800F017F9012197
:1027F000034800F09CF805B030BD0000000801401F
:10280000002C01403C01002008B50020009001216F
:10281000880700F09BF840B10121880700F084F898
:1028200069460748006805F059FB009838B14FF039
:10283000805004490860BFF34F8FBFF36F8F08BD0E
:102840002400002004ED00E07FB505460C46012180
:102850000846FFF7B5FBADF80850ADF8044000207E
:10286000ADF80A00ADF8060001A94FF0804000F075
:1028700071F901221146900700F0D0F81C208DF864
:10288000000006208DF8010000208DF802000120D4
:102890008DF803006846FFF751FB0121880700F01F
:1028A00046F87FBD30B589B005460C4601210220AF
:1028B000FFF786FB01210820FFF792FB0120ADF80E
:1028C000200018208DF8230003208DF8220008A98D
:1028D0001348FEF77FFAADF81850ADF81440002009
:1028E000ADF81A00ADF8160005A90E4800F032F94F
:1028F0006020ADF804000120ADF806000020ADF81E
:102900000C0001A9074800F09BF80821054800F0D9
:10291000E7F80121034800F00AF809B030BD0000D3
:10292000000C014000040040CA430282704721B1FC
:10293000028842F00102028004E002884FF6FE7332
:102940001A40028070470146888E704730B50246B3
:10295000002000230024158A05EA0103958905EA71
:10296000010413B10CB1012000E0002030BD0000D3
:1029700070B505460C46244885420ED02348854252
:102980000BD0B5F1804F08D02148854205D02148B1
:10299000854202D02048854200D100E000BF208857
:1029A00050B92389A28861882846FFF761FDE18834
:1029B000284600F0A2F825E0208804280AD12389BF
:1029C000A28861882846FFF793FDE188284600F039
:1029D0009DF817E0208808280AD12389A2886188F9
:1029E0002846FFF7D1FDE188284600F09CF809E071
:1029F0002389A28861882846FFF70EFEE1882846D1
:102A000000F09AF870BD0000002C01400034014035
:102A10000004004000080040000C00401AB1838907
:102A20000B43838102E083898B43838170470A468D
:102A30000021018C4FF6FD7319401143018470474A
:102A400070B5002400220023058C4FF6FF66354048
:102A50000584028C8388848B4FF68F752C404FF64B
:102A6000FC752C400D882C434FF6FF552A400D89EC
:102A70004FF6FF7606EA05252A434D8806EA052526
:102A80002A43154DA84202D0144DA8421DD14FF241
:102A9000FF752A404D894FF6FF7606EA05252A4341
:102AA0004FF6FF352A408D8806EA05252A434EF663
:102AB000FF752B404DF6FF752B408D8906EA0515F5
:102AC0002B43CD8906EA05152B4383808483CD886B
:102AD0008587028470BD0000002C01400034014055
:102AE0000A460021818B4FF6F77319401143818309
:102AF00070478187704781847047028B4FF6F3736C
:102B00001A400283028B0A4302837047028B4FF202
:102B1000FF331A400283028B4FF6FF7303EA01234F
:102B20001A4302837047828B4FF6F3731A408283F5
:102B3000828B0A4382837047828B4FF2FF331A40A5
:102B40008283828B4FF6FF7303EA01231A43828349
:102B500070470000002202881D4B98420ED01D4B8A
:102B600098420BD0B0F1804F08D01B4B984205D053
:102B70001A4B984202D01A4B984204D14FF68F73E9
:102B80001A404B881A43174B984207D0164B98426D
:102B900004D04FF6FF431A40CB881A4302808B883B
:102BA00083850B8803850A4B98420BD0094B9842CA
:102BB00008D00E4B984205D00D4B984202D00D4BD9
:102BC000984201D10B7A038601238382704700006B
:102BD000002C014000340140000400400008004087
:102BE000000C004000100040001400400040014074
:102BF000004401400048014010B540F225511D48F5
:102C000000F053F810B31B4800F0E6F8C4B21A48BD
:102C1000008800F40040C8B91748008800F48040DC
:102C200060B10A2C03D000201349088020E012482C
:102C3000008840F400401049088019E00D2C06D1AE
:102C40000D48008840F480400B49088010E00A4895
:102C50000088C0F30D0009490C5407480088401C47
:102C60000549088008460088C72801DD0020088043
:102C700010BD000000380140AC00002064010020BD
:102C800021B1828942F40052828104E082894DF6AA
:102C9000FF731A40828170471AB1838A0B43838283
:102CA00002E0838A8B438382704770B5024600241A
:102CB00000230025002040F66A16B14200D100BF73
:102CC000C1F3421501F01F03012606FA03F3012D9B
:102CD00002D19689334006E0022D02D1168A334094
:102CE00001E0968A33400C12012606FA04F4168895
:102CF000344013B10CB1012000E0002070BD000091
:102D00002DE9F04786B005460E460024A24600BFD6
:102D1000A1460027B08900B100BF2F462C8A4CF68F
:102D2000FF700440F08804432C82AC894EF6F31007
:102D30000440B08831890843718908430443AC8159
:102D4000AC8A4FF6FF400440B0890443AC8201A82E
:102D5000FFF756F91F48874202D1DDF810A001E0C5
:102D6000DDF80CA0A88900F4004040B10AEBCA00CD
:102D700000EB0A1031684900B0FBF1F807E00AEBFC
:102D8000CA0000EB0A1031688900B0FBF1F864203A
:102D9000B8FBF0F004012009642101FB1089A88927
:102DA00000F4004040B1322000EBC900B0FBF1F06C
:102DB00000F00700044308E0322000EB0910642112
:102DC000B0FBF1F000F00F0004432C8106B0BDE829
:102DD000F08700000038014001468888C0F30800F1
:102DE000704700BFFEE7490050EAC12018BF042029
:102DF0004A0D18BF40F0010040F2FF72B2EB515F84
:102E000008BF40F00200012808BF052070472DE9E7
:102E1000F0414F1E00EBC7010446D1E90001154601
:102E20001E4637F006020DD02A46334605F0BEFE98
:102E30007F1E04EBC703D3E9002305F027FC37F01E
:102E40000602F1D1022F25D0042F13D0062F18BF70
:102E5000BDE8F0812A46334605F0A8FED4E90A23EE
:102E600005F014FC2A46334605F0A0FED4E90823F9
:102E700005F00CFC2A46334605F098FED4E90623FB
:102E800005F004FC2A46334605F090FED4E90423FD
:102E900005F0FCFB2A46334605F088FED4E9022300
:102EA00005F0F4FB2A46334605F080FED4E9002302
:102EB000BDE8F04105F0EABB012206F022BD05F0B5
:102EC000E5BB002213461046114605F09BBC0000EE
:102ED000024A0020110706F014BD000001FDFFFFAB
:102EE00030380A2801D2012070470020704700BF07
:102EF000704700002DE9FE4F06460F460025684644
:102F000001F0FAF9002442E056F8240057F82410A2
:102F1000A0EB010ABAF1000F01DB514601E0CAF152
:102F20000001084606F0E8FA83464FF08F4106F0AC
:102F3000B1F980465DF82400002106F06DFA16D044
:102F40005DF82410404606F0A5F982464FF07E5108
:102F500006F030FC814629F0004A0F48416A50468D
:102F600006F0F6FB12D20120A04005430EE00A480D
:102F7000C169404606F0ECFA05D30748016A4046AD
:102F800006F0E6FB02D20120A0400543641C032C9E
:102F9000BADB2846BDE8FE8F64B000082DE9F04D8D
:102FA0008D4F21F0004A86B005460C46BA452ADB13
:102FB000AAEB070028430AD08848824501DC1AD1D1
:102FC000CDB106B02846BDE8F04DFFF775BF844A85
:102FD000844B284605F0EAFD07460E46824A834B9D
:102FE0002846214605F0E2FD06B03A463346BDE8E4
:102FF000F04D05F04BBB0120FDF787FB06B0BDE8A7
:10300000F04DFFF75EBF7A48824542DABAF1795F48
:103010000BDA2846FFF7E7FE042808BFFFF758FF42
:10302000284606B02146BDE8F08D2A460B461046DC
:1030300005F0BCFD834602466E480E460B4606214F
:103040007844FFF7E4FE5A46334605F0AFFD80466C
:1030500069488A465A46334604217844FFF7D7FE2A
:103060005A46334605F0A2FD00223B4605F00EFB12
:1030700002460B464046514605F0C4FB2A4623460D
:1030800005F094FD06B02A462346BDE8F04D05F054
:10309000FDBA284624F0004100223D463B4605F09B
:1030A00083FE4FF0FF3206F02CFC064602465348E2
:1030B0000F460B4606217844FFF7A9FE32463B46F1
:1030C00005F074FDCDE900014D4832463B46042130
:1030D0007844FFF79CFE32463B4605F067FD002230
:1030E0002B4605F0D3FA834602913046394603F069
:1030F00099FD804643480D46504517DCDDE9000147
:103100005A46029B05F07EFB42462B4605F04EFDDB
:1031100042462B4605F0BAFA012206F0F2FB304A8D
:10312000304B05F033FF304A304B4CE04FF0000A93
:1031300052460B46404605F0A9FACDE90310524627
:103140002B461046194605F031FD32463B4605F048
:103150002BFEDDE9033205F055FB06460F46DDE99F
:1031600000015A46029B05F04DFB83460091012267
:103170003046394606F0C5FB194A1A4B05F014FED5
:1031800006460F4601224046294606F0BAFB5A463B
:10319000009B05F00BFD32463B4605F0F7FE064668
:1031A0000F4601225046294606F0ABFB0E4DDFF8D4
:1031B00058802A46434605F0F7FD32463B4605F067
:1031C000F3FD2A46434605F0EFFD002CD8BF81F001
:1031D000004106B0BDE8F08D0000F03F0000F07F38
:1031E000075C143326A6913C182D4454FB21F93F6B
:1031F0000000E03F548C00006A8C0000DE8B000071
:10320000F48B00003333EF3FFB21E93F2DE9F84F0A
:1032100004460D4621F0004000917349814211DCC3
:103220007249884201DC06D12CB120462946BDE80E
:10323000F84FFFF741BE6E48002DCCBF6D496E4977
:10324000BDE8F88F6D49814211DD6D498142D8BFDB
:103250004FF0FF366DDD20462946FFF7C4FD0428F8
:1032600008BFFFF735FE20462946BDE8F88F6549BF
:10327000654F25F00045814233DD6449814219DD07
:10328000002632464FF080432046294605F0FEF9DD
:1032900080468A4601222046294606F032FB00225B
:1032A0003B4605F073FE4246534605F0ABFA044632
:1032B0000D463EE001260022BA463B4620462946FE
:1032C00005F0E4F980460F46002253462046294681
:1032D00005F05CFE42463B4605F094FA04460D4676
:1032E00027E04B4981421BDDDFF828A1022600229E
:1032F00053462046294605F059FC00223B4605F07E
:10330000C5F980460F46002253462046294605F05F
:103310003DFE42463B4605F075FA04460D4608E080
:10332000032622462B4600203B4905F06BFA044653
:103330000D4622462B461046194605F037FC8B46B3
:10334000824602460B4605F031FC074602463348EA
:1033500088460B4606217844FFF759FD52465B46E6
:1033600005F024FC82462E488B463A46434605210A
:103370007844FFF74CFD3A46434605F017FC0246F9
:103380000B46002E504659460CDA05F07FF92246CE
:103390002B4605F00BFC01B022462B46BDE8F04F52
:1033A00005F002BD05F072F922462B4605F0FEFB42
:1033B0001C4A7A4402EBC603D3E9002305F0E6FD7C
:1033C00022462B4605F0E2FD174A7A4402EBC6037B
:1033D000D3E9002305F0E8FC009A002AB8BF81F089
:1033E0000041BDE8F88F0000000010440000F07FAD
:1033F000182D4454FB21F93FFB21F9BF0000DC3FAD
:103400000000203E0000F33F0000F03F0000E63FD8
:10341000008003400000F83F0000F0BFF689000084
:10342000B4890000528900001A8900002DE9F04D8E
:103430009446CCF1000423F000464CEA0404594FB2
:1034400046EAD4749A46884621F00042BC4206D827
:10345000454240EA050442EAD474BC4204D9BDE8BE
:10346000F04D6246FFF72BBDAAF14055A5F17F65EF
:1034700055EA0C040BD0022404EAAA744A4DDFF882
:103480002CE144EAD87452EA000B04D00CE0BDE809
:10349000F04DFFF7BBBE002C14BF012CBDE8F08D32
:1034A000022C30D0032C32D056EA0C0B0AD0BE428C
:1034B00020D1BA4209D126F0804622F0804233461C
:1034C000114617E000291ADB25E0DFF8E4B0FB44E1
:1034D000002C04BFDBE90001BDE8F08D012C02BF28
:1034E000DBE9000181F00041BDE8F08D022C0AD03B
:1034F000032C0CD0BA4212D1B8F1000F0BDA2A48D3
:103500002C49BDE8F08D28462B49BDE8F08D2846B2
:103510007146BDE8F08D24482849BDE8F08D921B26
:1035200012153C2AC4BF204F244E10DCBAF1000F04
:10353000BEBF12F13C0F00273E4608DB624605F095
:1035400061F921F00041FFF761FE07460E4694B194
:10355000012C08BF86F000460DD0194A194B022CE9
:103560003846314615D005F011FD2A46BDE8F04D2C
:10357000114B05F00BBD002213463846314605F0CD
:1035800099FA04BF0220FDF7C0F838463146BDE87D
:10359000F08D05F0FBFC2A46BDE8F04D064B05F02A
:1035A00003BC00000000F07F182D4454FB2109C02B
:1035B000AE880000FB21F9BFFB210940FB21F93F48
:1035C000075C143326A6A13C2DE9F0410446E078BF
:1035D00000F0C006E07800F03F05607800F00100E0
:1035E00098B1EF102846E91705EB5171C910A5EB0A
:1035F000C101491C01F0FF080B48006820B10A48CE
:10360000414602683846904700BF607800F00800E5
:1036100030B10548406818B1B011034A5168884775
:103620000020BDE8F08100005401002010B5042006
:10363000FEF7D2FE104800681049B0FBF1F01049C7
:1036400008700D4800680D49B0FBF1F44FF47A7032
:10365000444301200B4908804FF0E020006940F00E
:1036600002004FF0E021086108464461006940F023
:103670000100086110BD00005400002040420F000E
:10368000AE000020B000002070B5044604F024FD18
:10369000012810D00B480088844206D309480088CE
:1036A000B4FBF0F5284603F081FE06480088B4FB21
:1036B000F0F100FB11444FF47A7104FB01F000F0CB
:1036C00003F870BDB000002070B5034600224FF033
:1036D000E02675690D4E367803FB06F44FF0E026C0
:1036E000B16910E04FF0E026B06988420BD0884203
:1036F00002D20E1A324402E02E1A0E44324401461F
:10370000A24200D300E0EDE700BF70BDAE00002094
:1037100030B50446002504E04FF47A70FFF7D4FF7B
:103720006D1CA542F8D330BD38B5044664B12020E5
:103730008DF8000028208DF8010030208DF802005F
:1037400038208DF8030004E0A32204216846FCF72A
:1037500054FF6A46042140F69E2002F017FB01F058
:1037600001FF38BD3EB5044602208DF80000CA2096
:103770008DF80100E3208DF8020009208DF8030088
:103780006A460421682002F001FBA3208DF80000A6
:1037900004F0400048B1C0208DF80100C8208DF829
:1037A0000200C2208DF8030006E0A3208DF801007E
:1037B0008DF802008DF8030004F4C07048B1C420F5
:1037C0008DF80400CC208DF80500C6208DF8060089
:1037D00006E0A3208DF804008DF805008DF80600A2
:1037E000A3208DF807008DF808008DF809006A46BF
:1037F0000A2140F6A72002F0C9FA04F0030018B12C
:1038000020208DF8000002E0D8208DF800006A46E4
:10381000012140F6B62002F0B9FA04F0200018B1F8
:10382000012000F0ADF802E0002000F0A9F804F457
:10383000C07008B304F4807060B1B2208DF800004D
:103840008B208DF80100B6208DF802009B208DF8AA
:1038500003000BE0B0208DF8000080208DF80100FF
:10386000B4208DF8020090208DF803006A460421F0
:1038700040F6A22002F08AFA04F0010020B3F820FA
:103880008DF800006A4601214FF40B6002F07EFAC9
:10389000FA21072000F02CFC072000F0F3FB0120A8
:1038A00000F013FC642000F0F3FC4FF4FA7000F019
:1038B00002FDC821304800F0A3FB282000F0BCFB2B
:1038C0000A2000F0CCFB08E0D8208DF800006A4602
:1038D00001214FF40B6002F059FA04F0020018B114
:1038E000D9208DF8000002E0D8208DF800006A464B
:1038F000012140F23D7002F049FA04F0040018B1D1
:10390000012000F069F802E0002000F065F804F002
:10391000100018B10120FFF707FF02E00020FFF7B9
:1039200003FF44F008001549488101F01BFE002008
:103930001249887304F0400018B10846807B801D4E
:10394000887304F4C07020B10C48807B801D0B4943
:10395000887304F0140020B10848807B10300749B8
:10396000887304F0030020B10448807B001D0349E4
:10397000887300203EBD000009E3CA025401002004
:103980003EB504466CB10EA1D1E900208968CDE9AD
:10399000002002916A4609214FF4976002F0F6F97F
:1039A0003EBD0AA2D2E900109268CDE90102009161
:1039B0006A4609214FF4976002F0E8F9F0E7000049
:1039C000B8AAB38DB4980D355D000000B8AAAAAAB4
:1039D000B088C3C5C700000038B5044664B1C02034
:1039E0008DF80000C2208DF80100C4208DF802007F
:1039F000C6208DF8030004E08B2204216846FCF702
:103A0000FCFD6A46042140F6982002F0BFF901F05F
:103A1000A9FD38BD10B5C8234FF48062024940F6B5
:103A2000F63001F033FC10BD8CB000082DE9F04FEA
:103A30008DB00746884615469946DDE9166B002489
:103A4000002030806B49887B5A4605A901F0EAFCCA
:103A500018B1601E0DB0BDE8F08F6648807A00F0A6
:103A60001400002867D09DF8140000069DF815107A
:103A700040EA01409DF8161040EA01209DF8171019
:103A8000084328609DF8180000069DF8191040EAC8
:103A900001409DF81A1040EA01209DF81B100843D0
:103AA00068609DF81C0000069DF81D1040EA01406A
:103AB0009DF81E1040EA01209DF81F100843A860E1
:103AC0009DF8200000069DF8211040EA01409DF875
:103AD000221040EA01209DF823100843E86004F119
:103AE0001000C4B2286800140190686800140290A5
:103AF000A86800140390E8680014049001984043FB
:103B0000029901FB0100039901FB0100049901FBEB
:103B1000010ABAF1706F02DBBAF1885F05DD01F0CE
:103B200021FD00203080401E94E7B6F9000040F4EB
:103B30008070308000BF2F48807A00F0400020B3B2
:103B400005A9601C085C095D40EA012000B2A8F8E4
:103B5000000005A9E01C095C05AAA01C105C41EA54
:103B6000002000B2A8F8020005A9601D095C201D14
:103B7000105C41EA002000B2A8F80400A01DC4B205
:103B8000B6F9000040F0080030801A48408900F47F
:103B9000C07008B305A9601C085C095D40EA0120FB
:103BA00000B2388005A9E01C095C05AAA01C105CC5
:103BB00041EA002000B2788005A9601D095C201D43
:103BC000105C41EA002000B2B880A01DC4B2B6F972
:103BD000000040F0700030800648807A00F003005A
:103BE00018B105A90819FFF7EFFC484600F046FF99
:103BF00000202FE75401002070B588B0064601A8C8
:103C000001F098F9BDF804000021C90341EA5045CC
:103C1000C4034448007A00F0030056F820000590E1
:103C20004048007A00F0040010B105984042059029
:103C30003C48007AC0F3C10056F82000069039488D
:103C4000007A00F0200010B10698404206903548F6
:103C5000007AC0F3811056F820000790314800899F
:103C600000F4807010B10798404207900598C11782
:103C7000A0FB042301FB043100FB0510810041EA95
:103C8000927005900698C117A0FB042301FB043134
:103C900000FB0510810041EA927006900798C11759
:103CA000A0FB042301FB043100FB0510810041EA65
:103CB000927007900598000E8DF808000598000C8A
:103CC0008DF809000598000A8DF80A000598C0B221
:103CD0008DF80B000698000E8DF80C000698000C6D
:103CE0008DF80D000698000A8DF80E000698C0B2F7
:103CF0008DF80F000798000E8DF810000798000C43
:103D00008DF811000798000A8DF812000798C0B2CC
:103D10008DF8130002AA0C214FF4257002F036F83A
:103D200008B070BD5401002030B585B0044616A21D
:103D300007CA02AB07C3C82C03DD4FF0FF3005B044
:103D400030BDC82090FBF4F0401E85B2280A8DF8E3
:103D50000000E8B28DF801006A46022140F2162008
:103D600002F014F810B14FF0FF30E8E702AA0C217E
:103D700040F6C12002F00AF810B14FF0FF30DEE744
:103D8000044884810020DAE7FEF2ABC4AAF1DFDF49
:103D9000BBAFDFDF540100201FB504464848007A5E
:103DA00000F0030054F8200001904548007A00F02C
:103DB000040010B10198404201904148007AC0F3DC
:103DC000C10054F8200002903D48007A00F0200025
:103DD00010B10298404202903948007AC0F3811035
:103DE00054F8200003903648008900F4807010B128
:103DF0000398404203903349019880FB0101800FF2
:103E000040EA810001902F49029880FB0110820056
:103E100042EA917002902B49039880FB01108200C6
:103E200042EA917003900198000E8DF8000001980D
:103E3000000C8DF801000198000A8DF8020001982D
:103E4000C0B28DF803006A4604214FF4747001F08B
:103E50009DFF18B14FF0FF3004B010BD0298000E66
:103E60008DF800000298000C8DF801000298000AFD
:103E70008DF802000298C0B28DF803006A46042152
:103E80004FF4757001F082FF10B14FF0FF30E3E79F
:103E90000398000E8DF800000398000C8DF80100C7
:103EA0000398000A8DF802000398C0B28DF8030051
:103EB0006A4604214FF4767001F068FFCCE70000F9
:103EC0005401002009E3CA0210B586B0044647A099
:103ED0000068039046A00068029046A00068019028
:103EE00045A00068009004F0030003A9085C8DF869
:103EF000140003A8C4F3C101405C8DF8150003A8A9
:103F0000C4F38111405C8DF8160004F0030002A98F
:103F1000085C8DF8100002A8C4F3C101405C8DF864
:103F2000110002A8C4F38111405C8DF8120005AAAB
:103F3000032140F2264001F029FF18B14FF0FF3075
:103F400006B010BD04AA032140F22A4001F01EFF72
:103F500010B14FF0FF30F3E70198059000980490FE
:103F600004F0040058B19DF8140040F001008DF8F1
:103F700014009DF8100040F001008DF8100004F0CE
:103F8000200058B19DF8150040F001008DF8150093
:103F90009DF8110040F001008DF8110004F48070CC
:103FA00058B19DF8160040F001008DF816009DF8FC
:103FB000120040F001008DF8120005AA03214FF411
:103FC000886001F0E3FE10B14FF0FF30B8E704AABB
:103FD000032140F2314001F0D9FE10B14FF0FF3023
:103FE000AEE7064804810020AAE700004CCD6C0033
:103FF0000CC92C0036567600264666005401002077
:10400000F8B505460E464FF47A7095FBF0F000FBCC
:1040100006F4200E8DF80000200C8DF80100200A17
:104020008DF80200E0B28DF803006A4604214FF4D7
:10403000AE7001F0ABFEF8BD38B50446052094FB28
:10404000F0F084B220128DF80000E0B28DF801008B
:104050006A4602214FF4AD7001F098FE38BD38B5C4
:104060000446052094FBF0F084B220128DF8000085
:10407000E0B28DF801006A4602214FF4AC7001F005
:1040800085FE38BD38B504460020009004F00100DC
:1040900020B19DF8000040F03000009004F00200D4
:1040A00020B19DF8000040F00C00009004F00400E6
:1040B00020B19DF8000040F0030000906A46012105
:1040C0004FF4A47001F062FE38BD38B50446012CEF
:1040D00001DA012402E0042C00DD0424601EC0B2D9
:1040E00000906A46012140F24F1001F04FFE38BDAA
:1040F0002DE9FC4706460F4606F0070010B1B7F55C
:10410000C86F03DD4FF0FF30BDE8FC87384605F08F
:104110000BFA8146594905F0BDF88046684600F023
:10412000E3FE9DF80000022806D0042816D00828D7
:1041300026D0102848D135E04FF08D41404605F09B
:104140003BFA814605F0B8F984B24D49404605F086
:1041500033FA814605F0B0F985B238E04FF08C4172
:10416000404605F029FA814605F0A6F984B2454992
:10417000404605F021FA814605F09EF985B226E019
:104180004FF08B41404605F017FA814605F094F94F
:1041900084B23D49404605F00FFA814605F08CF99E
:1041A00085B214E04FF08A41404605F005FA814699
:1041B00005F082F984B23549404605F0FDF98146A3
:1041C00005F07AF985B202E04FF0FF309CE700BFBE
:1041D00020128DF80400E0B28DF8050028128DF849
:1041E0000600E8B28DF8070006F00100A0B101AAB0
:1041F00002214FF4EA7001F0C9FD10B14FF0FF3019
:1042000082E70DF1060202214FF4927001F0BEFD2B
:1042100010B14FF0FF3077E706F00200A0B101AA1D
:1042200002214FF4EC7001F0B1FD10B14FF0FF30FE
:104230006AE70DF1060202214FF4947001F0A6FD29
:1042400010B14FF0FF305FE706F00400A0B101AA03
:1042500002214FF4EE7001F099FD10B14FF0FF30E4
:1042600052E70DF1060202214FF4967001F08EFD27
:1042700010B14FF0FF3047E7002045E7000048430A
:10428000000040460000C045000040450000C0441A
:1042900038B50446052094FBF0F085B228128DF85D
:1042A0000000E8B28DF801006A4602214FF4EF7079
:1042B00001F06CFD38BD38B50446052094FBF0F0E4
:1042C00085B228128DF80000E8B28DF801006A4628
:1042D00002214FF4ED7001F059FD38BD00BF054AD1
:1042E000128802F04002002AF9D0C2B2014B1B1D15
:1042F0001A807047003801407CB505462849496856
:10430000087801AB04220D21FDF706FD08B1072056
:104310007CBD9DF80700C0F301109DF8041001F06A
:10432000E00140EAE1008DF800009DF80700C0F3CD
:1043300081009DF8051001F0E00140EAE1008DF8F0
:1043400001009DF8070000F003009DF8061001F041
:10435000E00140EAE1008DF8020000241CE01DF8B5
:10436000040018B9002045F8240013E00D4845F872
:10437000240006E055F824000B4905F01DF945F826
:1043800024001DF80400401EC0B20DF804000028EF
:10439000F0D100BF601CC4B2032CE0DB0020B7E703
:1043A000700000207B14AE3E1D5A843F2DE9F04F73
:1043B00087B005460C46914601208DF8100000207C
:1043C0008DF81100FE4A1268917CFD4A52681078FF
:1043D00004AB0222FDF746FD20B14FF0FF3007B0DD
:1043E000BDE8F08FC820FFF74FF900208DF81000CE
:1043F000F34A1268D17BF24A5268107804AB01226A
:10440000FDF730FD10B14FF0FF30E8E7EC4A1268DD
:104410005179EB4A5268107804AB0122FDF722FD76
:1044200010B14FF0FF30DAE7E54A1268917CE44AB8
:104430005268107804AB0122FDF714FD10B14FF063
:10444000FF30CCE7DE4A1268D17DDD4A5268107831
:1044500004AB0122FDF706FD10B14FF0FF30BEE7BF
:10446000D74A12681179D64A5268107804AB0122F3
:10447000FDF7F8FC10B14FF0FF30B0E70C208DF8DD
:104480001000CF4A12681179CD4A5268107804ABF7
:104490000122FDF7E7FC10B14FF0FF309FE70F203E
:1044A000FFF7F2F8C648806A407A8DF81000C44AD7
:1044B00012689178C24A5268107804AB0122FDF765
:1044C000D1FC10B14FF0FF3089E7BD48806A007A17
:1044D0008DF81000BA4A12685178B94A52681078BB
:1044E00004AB0122FDF7BEFC10B14FF0FF3076E7C0
:1044F000B9F1000F07D0B248806A807A40F0E0003E
:104500008DF8100004E0AE48806A807A8DF81000C3
:10451000AB4A12689179AA4A5268107804AB01221A
:10452000FDF7A0FC10B14FF0FF3058E7B9F1000FD4
:1045300007D0A348806AC07A40F0E0008DF81000F0
:1045400003E0A048C07A8DF810009D4A1268D17926
:104550009B4A5268107804AB0122FDF783FC10B12E
:104560004FF0FF303BE7B9F1000F02D0C820FFF752
:104570008BF840208DF81000914A12681179904A0A
:104580005268107804AB0122FDF76CFC10B14FF0BB
:10459000FF3024E778208DF81000894A126851799D
:1045A000874A5268107804AB0122FDF75BFC10B11A
:1045B0004FF0FF3013E783498889FFF765F8002043
:1045C0008DF810007E4A126851797D4A5268107841
:1045D00004AB0122FDF746FC10B14FF0FF30FEE6C0
:1045E000774A1268917A764A5268107804AB0222B0
:1045F000FDF792FB10B14FF0FF30F0E69DF811008F
:104600009DF8101040EA012B0C209BFBF0F0C6B285
:104610000020A86068602860A0606060206082461A
:1046200065E0674A1268D17A654A5268107804AB2F
:104630000C22FDF771FB10B14FF0FF30CFE69DF873
:1046400011009DF8101040EA012000B2ADF80800FA
:104650009DF813009DF8121040EA012000B2ADF859
:104660000A009DF815009DF8141040EA012000B2E0
:10467000ADF80C00BDF90810206808442060BDF9B1
:104680000A10606808446060BDF90C10A068084416
:10469000A0609DF817009DF8161040EA012000B2B6
:1046A000ADF800009DF819009DF8181040EA0120AF
:1046B00000B2ADF802009DF81B009DF81A1040EA08
:1046C000012000B2ADF80400BDF9001028680844CC
:1046D0002860BDF90210686808446860BDF90410DC
:1046E000A8680844A8600AF1010000F0FF0AB2457A
:1046F00097DB3448D0F800C02868C117090441EAA4
:1047000010410704624600233846FBF7D2FD3246CB
:104710000023CDE90201FBF7CCFD28602948D0F841
:1047200000C06868C117090441EA104107046246E5
:1047300000233846FBF7BDFD32460023CDE90201D8
:10474000FBF7B7FD68601F48D0F800C0A868C11724
:10475000090441EA10410704624600233846FBF78A
:10476000A8FD32460023CDE90201FBF7A2FDA860B7
:104770001448D0F804C02068C117090441EA104168
:104780000704624600233846FBF793FD32460023B8
:10479000CDE90201FBF78DFD20600A48D0F804C086
:1047A0006068C117090441EA10410704624600230A
:1047B0003846FBF77EFD32460023CDE9020103E0D7
:1047C0007000002064B00008FBF773FD60601148C2
:1047D000D0F804C0A068C117090441EA10410704D9
:1047E000624600233846FBF764FD32460023CDE9DC
:1047F0000201FBF75EFDA060A068002804DDA06850
:10480000A0F58030A06003E0A06800F58030A060D3
:104810000020E4E564B000082DE9FC5F06460F4681
:1048200000253D494968087801AB03220D21FDF7B9
:1048300073FA10B10720BDE8FC9F9DF8040000F05A
:104840001F008DF804009DF8050000F01F008DF892
:1048500005009DF8060000F01F008DF806000024FA
:1048600056E056F8240057F82410A0EB010BBBF1DA
:10487000000F01DB594601E0CBF10001084604F0CE
:104880003BFE4FF08F41009004F004FD814601A8EB
:10489000005D68B32149086804F046FE8346594626
:1048A0001F4804F0F7FC804604E01E49404604F02F
:1048B00083FE804601A8005D401EC0B201A90855D4
:1048C0000028F2D14146484604F0E4FC83464FF00C
:1048D0007E5104F06FFF82462AF0004B0F48816939
:1048E000584604F035FF12D20120A04005430EE0E7
:1048F0000A480169484604F02BFE05D30748416980
:10490000484604F025FF02D20120A0400543641C64
:10491000032CA6DB28468EE77000002064B0000858
:1049200000B04C4554E3853F10B50446204600F0E6
:104930000FF80346E01C00F00BF843EAC00083B216
:10494000A01D00F005F843EA801083B2184610BDA0
:10495000014691F90020002A01DD00201EE091F9B6
:104960000020002A01DA042018E091F90120002A31
:1049700001DD012012E091F90120002A01DA052071
:104980000CE091F90220002A01DD022006E091F9F5
:104990000220002A01DA062000E00720704738B51F
:1049A0000446A088ADF8000010208DF80300032015
:1049B0008DF8020069462068FCF70CFA204600F0EA
:1049C00001F838BD10B50446A1882068FCF798FAB4
:1049D00010BD10B50446A1882068FCF78FFA10BD01
:1049E0001CB54FF44070FDF7E1FAFEF71FFE4FF4DF
:1049F000E13002F001FAFDF735F900F025FA4FF445
:104A0000005213491348FCF773FF4FF40042124958
:104A10001248FBF7CFFF4FF480521149114802F0C2
:104A20003BFA43F63F016320FDF73CFFFCF7E0F85B
:104A3000FCF78CFC0C48012100234022CDE900103A
:104A40000AA10D4803F018FB02F04CFE00201CBD2B
:104A5000001001402C000020000C01403400002018
:104A6000000801403C0000200000002073746172C7
:104A7000745F7461736B0000896C000870470000FC
:104A800086B07BE003AA04A905A800F0CBF80028B3
:104A900074D13B49049804F08FFD054604F0F0FC06
:104AA0000446002C25DA64420020102135A24FF67E
:104AB000FF73CDE9002102901F222821FDF706FC9B
:104AC000642094FBF0F5102002232A462821009050
:104AD0003820FCF737FE642094FBF0F100FB114511
:104AE000102002232A46282100905020FCF72AFE9D
:104AF00023E00020102127A24FF6FF73CDE900210B
:104B000002901F222821FDF7E1FB642094FBF0F5C1
:104B1000102002232A46282100903020FCF712FEA4
:104B2000642094FBF0F100FB1145102002232A467B
:104B3000282100904820FCF705FE41F294108442A1
:104B400010DD08211748FDF7D4FF0020102116A220
:104B50004FF6FF73CDE9002102901F221421FDF7CB
:104B6000B5FB08E04FF6FF70232380220021009060
:104B70000846FCF79BFB6420FEF786FD82E70000F9
:104B80000000C842616E676C653A2D30302E3030BF
:104B900064000000616E676C653A30302E3030641E
:104BA000000000000004004043617574696F6E21CD
:104BB0000000000070B50446002624F001041848E7
:104BC00090F8240008B1002070BD1548807A10B913
:104BD0004FF0FF30F8E71248057C807A20401049FA
:104BE00008740846007CA04202D04FF0FF3600E077
:104BF000002614B90A48007D18B1012001F0CAFF4F
:104C000002E0002001F0C6FF3CB100F0ABFC20B197
:104C1000034805744FF0FF30D6E73046D4E7000074
:104C2000700000202DE9F04F99B004460D4616465D
:104C30004FF07E574FF000084FF000094FF0000A88
:104C400012A813A918AB0EAACDE9001014A916A832
:104C5000FEF7ECFE18B1012019B0BDE8F08FBDF8E9
:104C60004C0000F4807000287ED00E9804F044FCC4
:104C700083464FF09D4104F00DFB07460F9804F06A
:104C80003BFC83464FF09D4104F004FB80461098A6
:104C900004F032FC83464FF09D4104F0FBFA81465C
:104CA000119804F029FC83464FF09D4104F0F2FA7C
:104CB000824639464FF0804004F07EFC494605901C
:104CC00004F07AFC414607904FF0404004F074FC39
:104CD0005146059004F070FC0690079904F06CFAB8
:104CE000834604F03DFACDE90801FEF757F94FF08D
:104CF0006632544BCDE90A0103F058FFCDE90C01AF
:104D000003F092FC206049464FF0804004F054FCD0
:104D10004946029004F050FC414604904FF0404058
:104D200004F04AFC4146029004F046FC03900499CA
:104D300004F040FD83464FF07E5104F03DFA0590AB
:104D400004F00EFACDE9080139464FF0804004F036
:104D500033FC4146039004F02FFC494604904FF089
:104D6000804004F029FC00E068E05146039004F024
:104D700023FC8346049904F01FFA059004F0F0F92F
:104D8000CDE90601DDE90823FEF750FB4FF066325E
:104D90002C4BCDE90A0103F009FFCDE90C0103F02A
:104DA00043FC28605146504604F006FC49460490F6
:104DB000484604F001FC41460390404604F0FCFBE9
:104DC00039460190384604F0F7FB0090019904F051
:104DD000F3F90290039904F0EDFC8346049904F082
:104DE000E9FC059004F0BCF9CDE9080151463846CC
:104DF00004F0E2FB49460490404604F0DDFB0390DA
:104E0000049904F0D9F94FF08041059004F0D4FBE7
:104E1000834604F0A5F9CDE90601DDE90823FEF794
:104E200005FB4FF06632074BCDE90A0103F0BEFEE9
:104E3000CDE90C0103F0F8FB306001E002200BE744
:104E4000002009E766A64C4070B50024FCF7E8FD99
:104E500000F024F9002840D1782000F02FFFC4B2E0
:104E60000CB1012070BD7820FFF7A4FEC4B20CB1D4
:104E70000220F7E7642000F0D3FEC4B20CB1032097
:104E8000F0E7FEF7C7FDC4B20CB10420EAE715480D
:104E9000FFF74AFD0546FFF717F8C4B20CB105202D
:104EA000E0E740F27310FEF75DFCC4B20CB10620DF
:104EB000D8E76420FEF738FFC4B20CB10720D1E771
:104EC00001F01EFE04460CB10820CBE7012000F0E3
:104ED000A3FDC4B21CB10920C4E70A20C2E7002028
:104EE000C0E700009C00002001461148407A30B124
:104EF000012807D0022808D003280CD108E002209E
:104F000008700BE00420087008E00820087005E035
:104F10001020087002E04FF0FF30704700BF0448D7
:104F2000C07C18B108784006000E08700020F4E735
:104F30007000002001461348407A30B1012808D0A3
:104F400002280AD0032810D10BE04FF480400880DB
:104F50000EE041F69C7008800AE04FF48050088013
:104F600006E04FF40060088002E04FF0FF30704729
:104F700000BF0448C07C10B10888401008800020A1
:104F8000F5E700007000002001460248007C087030
:104F9000002070477000002001460F48007A30B1B1
:104FA000012807D0022809D003280FD10AE0FA20EF
:104FB00008800EE04FF4FA7008800AE04FF47A702F
:104FC000088006E04FF4FA60088002E000200880C4
:104FD00000BF00BF002070477000002001460E484F
:104FE000007A30B1012807D0022808D003280CD15C
:104FF00008E00A4808600BE00948086008E0094832
:10500000086005E00848086002E04FF0FF30704794
:1050100000BF0020FBE700007000002000000343F9
:105020000000834233330342333383410146124845
:10503000C07A082817D2DFE800F01704070A0D101D
:105040001318BC20088013E06220088010E02A209A
:1050500008800DE0142008800AE00A20088007E09C
:105060000520088004E000BF00BF0020088000BFCA
:1050700000BF002070470000700000200146064875
:1050800090F8240010B14FF0FF3070470248C089FB
:1050900008800020F9E70000700000201CB5802087
:1050A0008DF80000654A1268917C644A5268107855
:1050B0006B460122FCF7D6FE10B14FF0FF301CBD4D
:1050C0006420FEF7E1FA00208DF800005B4A1268C8
:1050D000917C5A4A526810786B460122FCF7C2FE56
:1050E00010B14FF0FF30EAE7544A1268917D534AFD
:1050F000526810786B460622FCF70EFE10B14FF096
:10510000FF30DCE79DF80500C007400F9DF8031055
:1051100001F0010140EA41009DF8011001F0010198
:1051200040EA010494B1012C03D101214348C17428
:1051300031E0022C03D100214048C1742BE021460C
:105140003FA0FBF7DBF84FF0FF30B8E73B4A1268AF
:10515000D1783A4A526810786B460122FCF7DCFDA0
:1051600010B14FF0FF30AAE79DF8000000F00F04E7
:105170002CB93D48FBF7C2F84FF0FF309FE7042CF5
:1051800006D13AA0FBF7BAF801212C48C17402E01D
:1051900000212A48C174FF2128488172FF20274935
:1051A0000872FF2125484172C1724FF6FF71C1811B
:1051B000FF21017481740121017380F82210002104
:1051C00080F82310417501751630016041608160DF
:1051D000163880F8241080F82510C1844FF4FA6046
:1051E00000F062FC10B14FF0FF3068E7022000F0E1
:1051F0002BFB10B14FF0FF3061E72A2000F0CEFC0E
:1052000010B14FF0FF305AE7322000F009FD10B125
:105210004FF0FF3053E70020FFF7CCFC10B14FF008
:10522000FF304CE7002000F051FB10B14FF0FF3091
:1052300045E7002000F042FD002040E7700000201C
:10524000556E737570706F7274656420736F6674D9
:10525000776172652070726F647563742072657611
:105260002025642E0A00000088BD000848616C6695
:105270002073656E736974697669747920706172E0
:105280007420666F756E642E0A0000002DE9F043ED
:1052900085B005460E4690469946294890F8250067
:1052A00020B14FF0FF3005B0BDE8F08316B94FF0E4
:1052B000FF30F8E7002423E0281B102801DD102030
:1052C00000E0281B87B232193946204600F05EFD07
:1052D00010B14FF0FF30E6E701AA3946204600F052
:1052E00001F910B14FF0FF30DDE730193A4601A95E
:1052F000FBF712F910B16FF00100D4E7E01984B2A6
:10530000AC42D9DB4FEA28208DF8000008F0FF00FE
:105310008DF801000A4A1268917E094A5268107895
:105320006B460222FCF79EFD10B14FF0FF30BAE74A
:105330000121034880F82510A0F826900020B2E74C
:105340007000002038B50446282C02DD4FF0FF30F5
:1053500038BDDCB9002000F0EBFB00208DF8000028
:1053600007208DF801002E4A1268917C2C4A526861
:1053700010786B460222FCF775FD10B14FF0FF303C
:10538000E6E70021264801750020E1E7012000F052
:10539000CFFB20208DF80000012C06D100208DF8D5
:1053A0000100052000F0FAFB17E0052C06DC0120C7
:1053B0008DF80100052000F0F1FB0EE0142C06DC56
:1053C00002208DF801000A2000F0E8FB05E0032030
:1053D0008DF80100142000F0E1FB9DF80100072189
:1053E00001EB8010C0B28DF801000D4A1268917C6B
:1053F0000B4A526810786B460222FCF733FD10B15D
:105400004FF0FF30A4E708210548817200210173A5
:10541000012101750020FFF7CDFB002098E7000077
:1054200070000020F8B504460F4616462C4890F848
:10543000240010B94FF0FF30F8BD2948807A10B928
:105440004FF0FF30F8E7264A1268917A244A5268F2
:1054500010786B460222FCF75FFC10B14FF0FF3072
:10546000EAE79DF801009DF8001040EA0125A542F9
:1054700003DA00203070401EDEE71948406840889B
:10548000B5EB600F17DD164A1268517C144A52685A
:1054900010786B460122FCF73FFC10B14FF0FF3053
:1054A000CAE79DF8000000F0100020B100F05AF8A3
:1054B0006FF00100C0E7E2B2094B1B68D97A084BD4
:1054C0005B6818783B46FCF727FC10B14FF0FF30C3
:1054D000B2E795FBF4F0401E30700020ACE700000E
:1054E00070000020F8B504460D46164616B94FF078
:1054F000FF30F8BD1A48807A10B94FF0FF30F8E756
:1055000020128DF80000E0B28DF801009DF8010036
:105510002844134949684989884202DD4FF0FF3029
:10552000E7E70F4A1268117E0D4A526810786B4601
:105530000222FCF797FC10B14FF0FF30D9E7EAB236
:10554000074B1B68597D064B5B6818783346FCF7A0
:10555000E3FB10B14FF0FF30CBE70020C9E70000BC
:105560007000002008B57048807A10B94FF0FF3005
:1055700008BD002000906C4A1268D17B6A4A5268CC
:1055800010786B460122FCF76DFC10B14FF0FF3034
:10559000EEE7654A12685179634A526810786B46A3
:1055A0000122FCF75FFC10B14FF0FF30E0E75E4AEC
:1055B000126811795C4A526810786B460122FCF738
:1055C00051FC10B14FF0FF30D2E7574890F824005B
:1055D000002853D00C200090534A12681179524A87
:1055E000526810786B460122FCF73CFC10B14FF07A
:1055F000FF30BDE73220FEF747F8C02000904A4850
:10560000807A00F0010020B19DF8000040F02000F9
:105610000090454A12681179434A526810786B46E7
:105620000122FCF71FFC10B14FF0FF30A0E73E480D
:10563000407C10B10220009001E0002000903A4A26
:105640001268D17B384A526810786B460122FCF709
:1056500009FC10B14FF0FF308AE700200090324A79
:1056600012685179304A526810786B460122FCF773
:10567000F9FB002855D04FF0FF3079E70420009067
:10568000294A12681179284A526810786B4601221B
:10569000FCF7E8FB10B14FF0FF3069E72248807C4F
:1056A00020B92148807A00F0010010B94020009014
:1056B00001E0602000901C4A126811791A4A526871
:1056C00010786B460122FCF7CDFB10B14FF0FF3094
:1056D0004EE73220FDF7D8FF1348407C10B101207F
:1056E000009001E0002000900F4A1268D17B0E4A22
:1056F000526810786B460122FCF7B4FB10B14FF0F2
:10570000FF3035E7084A12685179074A5268107825
:10571000054B10330122FCF7A5FB10B14FF0FF3011
:1057200026E7002024E70000700000202DE9F04F5C
:105730008DB083460F4602200C90424890F824001A
:1057400020B1002000F068F9012600E0002603A83F
:10575000FFF722FC05A8FFF7C7FB01A8FFF766FCCF
:1057600002A8FFF78BFC374890F80AA004A8FFF7BF
:105770000BFC002407E0002239465846FEF716FECF
:1057800000B902E0641C022CF5DB00BF022C01D141
:10579000002528E0002407E0012206A909A8FEF759
:1057A00005FE00B902E0641C022CF5DB00BF022CF0
:1057B00001D1002517E006A93846FDF79BFB00F054
:1057C000FF0809A95846FFF727F800F0FF09002550
:1057D000B9F1000F01D145F00105B8F1000F01D179
:1057E00045F0020500BFFF2016490872FF21154849
:1057F0004172C1724FF6FF71C181FF218172017444
:1058000001210173BDF80C0000F04EF99DF8140061
:1058100000F01AF8BDF8040000F0C0F9BDF8080067
:1058200000F0FEF9504600F049FA9DF81000FFF72D
:10583000C1F916B1012000F0EFF828460DB0BDE81F
:10584000F08F00007000002038B504461E48807AB2
:1058500010B94FF0FF3038BD022C06D0042C07D011
:10586000082C08D0102C0CD108E0002000900BE090
:105870000820009008E01020009005E0182000901B
:1058800002E04FF0FF30E6E700BF0F48407A9DF896
:105890000010B0EBE10F01D10020DCE70A4A1268EA
:1058A000D179094A526810786B460122FCF7DAFA7E
:1058B00010B14FF0FF30CEE79DF80000C110024854
:1058C00041720020C7E700007000002038B5044690
:1058D0005048807CA04201D1002038BD002C46D029
:1058E0004C4A126811794B4A526810786B46012273
:1058F000FCF712FA10B14FF0FF30EEE79DF8000010
:1059000020F020000090434A12681179414A526801
:1059100010786B460122FCF7A5FA10B14FF0FF306A
:10592000DBE70320FDF7B0FE02200090394890F835
:10593000220020B19DF8000040F080000090354822
:1059400090F8230020B19DF8000040F03000009056
:10595000304A1268117D2F4A526810786B46012236
:10596000FCF780FA002851D04FF0FF30B5E7294A04
:1059700012681179274A526810786B460122FCF7A9
:10598000CBF910B14FF0FF30A7E72248807A00F042
:10599000010028B19DF8000040F02000009004E0D4
:1059A0009DF8000020F0200000901A4A126811793A
:1059B000184A526810786B460122FCF753FA10B16E
:1059C0004FF0FF3089E70320FDF75EFE114890F8A5
:1059D000220010B18020009001E0002000900D48CE
:1059E00090F8230020B19DF8000040F030000090B6
:1059F000084A1268117D074A526810786B460122E6
:105A0000FCF730FA10B14FF0FF3066E701488474BC
:105A1000002062E77000002038B50446214890F865
:105A20002400A04201D1002038BD24B31D4890F8C5
:105A3000250010B94FF0FF30F6E7002001F0AAF87A
:105A40000020FFF743FF1749C88C00F0E9F8002059
:105A500000901449496808786B4601222321FCF71D
:105A600001FA01210F4880F82410012001F092F87A
:105A7000FFF778FD13E0002001F08CF80948007C66
:105A800000900849496808786B4601222321FCF7F9
:105A9000E9F90021034880F82410FFF763FD002096
:105AA000C2E700007000002038B504461F48807A25
:105AB00010B94FF0FF3038BDFA2C09D0B4F5FA7F99
:105AC00009D0B4F57A7F09D0B4F5FA6F0CD108E0AB
:105AD000002000900BE00820009008E010200090CB
